:1000000071C000008EC000008CC000008AC00000DB
:1000100088C0000086C0000084C0000082C00000CC
:1000200080C000007EC000007CC000007AC00000DC
:1000300078C0000076C0000074C0000072C00000EC
:1000400070C000006EC000006CC000006AC00000FC
:1000500068C0000066C0000064C0000062C000000C
:1000600060C000005EC000005CC000005AC000001C
:1000700058C0000057C0000054C0000052C000002B
:1000800050C000004EC000004CC000004AC000003C
:1000900048C0000046C0000044C0000042C000004C
:1000A00040C000003EC000003CC000003AC000005C
:1000B00038C0000036C0000034C0000032C000006C
:1000C00030C000002EC000002CC000002AC000007C
:1000D00028C0000026C0000024C0000022C000008C
:1000E00020C0000011241FBECFEFD1E2DEBFCDBF84
:1000F00000E00CBF13E0A0E0B2E0EAE9FFE000E0BE
:100100000BBF02C007900D92A435B107D9F713E0D9
:10011000A4E5B3E001C01D92A73DB107E1F726D3E6
:100120003AC76ECF1F920F920FB60F9211242F93E2
:100130003F938F939F938091780090E09093C503B5
:100140008093C40320917900922F80E09093CC0398
:100150008093CB032091CB033091CC038091C403D7
:100160009091C503820F931F9093CC038093CB0390
:100170009F918F913F912F910F900FBE0F901F90E5
:100180001895806480937C008FE880937A0082E0E9
:1001900083BFE0ECF0E0808185FFFDCF80EA9FE047
:1001A0000197F1F7E3E5F0E08081816080830895B5
:1001B0008F929F92AF92BF92CF92DF92EF92FF9277
:1001C0000F931F938091B7039091B803892BE9F4A3
:1001D00080E0D7DF88958091CB039091CC039093FA
:1001E000D0038093CF03E0ECF0E0808185FFFDCF6A
:1001F00080EA9FE00197F1F78091B7039091B803EF
:1002000001969093B8038093B7038091B7039091C0
:10021000B8030197E9F481E0B4DF88958091CB03BE
:100220009091CC039093A9038093A803E0ECF0E0B5
:10023000808185FFFDCF80EA9FE00197F1F78091F3
:10024000B7039091B80301969093B8038093B703D6
:100250008091B7039091B8030297E9F482E091DFAF
:1002600088958091CB039091CC039093B4038093B5
:10027000B303E0ECF0E0808185FFFDCF80EA9FE0F2
:100280000197F1F78091B7039091B803019690938D
:10029000B8038093B7038091B7039091B803039795
:1002A000E9F483E06EDF88958091CB039091CC03D5
:1002B0009093A7038093A603E0ECF0E0808185FF94
:1002C000FDCF80EA9FE00197F1F78091B70390910D
:1002D000B80301969093B8038093B7038091B70356
:1002E0009091B803049709F0F3C11092B8031092EB
:1002F000B7038091CF039091D0034091B303509105
:10030000B403480F591F56954795A42E8091A80312
:100310009091A9030091A6031091A703080F191F3C
:1003200016950795B02E2091A8033091A9038091CE
:10033000CF039091D003820F931F96958795882EB7
:100340002091B3033091B4038091A6039091A70349
:10035000820F931F96958795982E2DB73EB72850FC
:1003600030400FB6F8943EBF0FBE2DBFEDB7FEB7BD
:1003700031960F2EF3EDEF2EF3E0FF2EF02DD70187
:100380008D919C91918380830F2EF4EDCF2EF2E01E
:10039000DF2EF02DD382C282448315828BED92E052
:1003A00097838683FBD2EDB7FEB73196D7018D9147
:1003B0009C9191838083D382C282048315828CEEC8
:1003C00092E097838683EAD20F900F90EDB7FEB745
:1003D0003196D7018D919C919183808380E092E04A
:1003E0009383828388E292E095838483D7D280913D
:1003F0008800909189002DB73EB72A5F3F4F0FB616
:10040000F8943EBF0FBE2DBF8136910530F481E6D2
:1004100090E090938900809388008091880090916B
:1004200089008955924030F088E592E090938900E8
:100430008093880080918A0090918B008E55914026
:1004400030F48EE591E090938B0080938A00809148
:100450008A0090918B008D5B924030F08CEB92E0A3
:1004600090938B0080938A00AB1408F04AC080916F
:100470008800909189008855924008F042C0E8E8D1
:10048000F0E0808191810A9691838083208131817F
:100490008DB79EB708970FB6F8949EBF0FBE8DBF5D
:1004A000EDB7FEB7319603ED13E0D8018D919C9125
:1004B0009183808384ED92E09383828335832483C8
:1004C0008BEF92E09783868369D20F900F90EDB700
:1004D000FEB73196D8018D919C919183808380E005
:1004E00092E09383828388E292E09583848356D25C
:1004F0002DB73EB72A5F3F4F0FB6F8943EBF0FBEF1
:100500002DBFBA1408F04AC08091880090918900EC
:100510008236910508F442C0E8E8F0E080819181DC
:100520000A9791838083208131818DB79EB7089788
:100530000FB6F8949EBF0FBE8DBFEDB7FEB73196D4
:1005400003ED13E0D8018D919C919183808384ED1C
:1005500092E093838283358324838BEF92E09783A9
:1005600086831CD20F900F90EDB7FEB73196D8015D
:100570008D919C919183808380E092E0938382832C
:1005800088E292E09583848309D22DB73EB72A5F33
:100590003F4F0FB6F8943EBF0FBE2DBF981408F022
:1005A0004AC080918A0090918B008C5B924008F049
:1005B00042C0EAE8F0E0808191810A9691838083CD
:1005C000208131818DB79EB708970FB6F8949EBFF2
:1005D0000FBE8DBFEDB7FEB7319603ED13E0D80126
:1005E0008D919C919183808384ED92E093838283AB
:1005F0003583248383E093E097838683CFD10F9064
:100600000F90EDB7FEB73196D8018D919C919183F3
:10061000808380E092E09383828388E292E09583F6
:100620008483BCD12DB73EB72A5F3F4F0FB6F894F5
:100630003EBF0FBE2DBF891408F04AC080918A00CA
:1006400090918B008F55914008F442C0EAE8F0E0A9
:10065000808191810A9791838083208131818DB738
:100660009EB708970FB6F8949EBF0FBE8DBFEDB72B
:10067000FEB7319603ED13E0D8018D919C919183E3
:10068000808384ED92E0938382833583248383E0A7
:1006900093E09783868382D10F900F90EDB7FEB7DA
:1006A0003196D8018D919C919183808380E092E076
:1006B0009383828388E292E0958384836FD12DB700
:1006C0003EB72A5F3F4F0FB6F8943EBF0FBE2DBF17
:1006D0001F910F91FF90EF90DF90CF90BF90AF9060
:1006E0009F908F900895E0E8F0E08081826A808397
:1006F000E1E8F0E080818B61808387E893E190936B
:10070000870080938600E4E2F0E080818066808349
:1007100081E690E0909389008093880090938B000D
:1007200080938A008AEF90E09093B6038093B5039C
:100730001092B8031092B7031CD0E5EDF3E026E465
:1007400033E03183208334972193319331832083A5
:1007500083E193E061E070E04AE250E02FD181E074
:1007600090E060E070E066D378940895BCDF20DD0F
:10077000FECF87E68093C40088E18093C10008958E
:100780001F93182F873061F42091D5033091D60341
:100790008EE393E061E070E047E050E00FD10BC0E2
:1007A0008A3011F48DE0ECDFE0ECF0E0808185FF31
:1007B000FDCF1093C60080E090E01F9108956F92E6
:1007C0007F928F929F92AF92BF92CF92DF92EF92E1
:1007D000FF920F931F93CF93DF938C01809154036B
:1007E00090915503892B09F0B4C00F2EF6E5EF2E3A
:1007F000F3E0FF2EF02D0F2EF0ECCF2EDD24F02DA8
:100800000F2EF6ECAF2EBB24F02D0F2EF5EA8F2E17
:10081000F3E09F2EF02D370102C0E7017E01F601C3
:1008200080818823E4F7808184FF03C02EEF3FEFAF
:10083000A4C0F601808183FD9EC0F50190819D30AA
:1008400011F09A3061F48AE0F7018083B80198DFF3
:1008500086E593E090935503809354037AC09930D2
:1008600011F490E206C0892F80528F3510F0903A33
:1008700070F0E814F90429F487E0B80181DFE7019A
:10088000CDCFE7019993892FB8017ADFC7CF923195
:1008900071F1933138F4933009F46DC0983009F058
:1008A000BCCF15C0973131F09F3789F0953109F0F1
:1008B000B4CF09C06E147F0408F0AFCFE7018A916E
:1008C0008032A9F5AACF6E147F0400F1A6CF6E1472
:1008D0007F0408F0A2CF88E0B80152DF80E2B801BF
:1008E0004FDF88E0B8014CDFE701219797CF8DE01B
:1008F000B80146DF6E147F0408F08FCFE3018991C1
:10090000B8013EDFCE15DF05D0F387CFE70188E0E1
:10091000B80136DF80E2B80133DF88E0B80130DFAC
:1009200021976C167D0698F3E30178CFEF0188E0FC
:10093000B80126DF80E2B80123DF88E0B80120DFBC
:100940006C167D0608F06ACFFE018291803271F745
:1009500065CFE0915403F09155038191F0935503D5
:10096000E09354038A3021F41092550310925403FB
:10097000282F30E002C02FEF3FEF822F932FDF911F
:10098000CF911F910F91FF90EF90DF90CF90BF908C
:10099000AF909F908F907F906F900895DF93CF934B
:1009A000CDB7DEB79E01265F3F4F8E819F81688560
:1009B0007985A90146D0CF91DF9108958F929F92BA
:1009C000AF92BF92CF92DF92EF92FF920F931F935D
:1009D000CF93DF93FC014B015A016901D9011396B2
:1009E0008C9181FF1EC07F01C0E0D0E014C0D60111
:1009F0001896ED91FC911997D7018C91B601199534
:100A0000892B89F40894E11CF11C0F5F1F4F081516
:100A1000190568F32196CA15DB0528F400E010E0FB
:100A2000F6CFC0E0D0E0CE01DF91CF911F910F91C2
:100A3000FF90EF90DF90CF90BF90AF909F908F90FE
:100A400008952F923F924F925F926F927F928F9272
:100A50009F92AF92BF92CF92DF92EF92FF920F934D
:100A60001F93DF93CF93CDB7DEB72B970FB6F894D4
:100A7000DEBF0FBECDBF3C012B015A01FC01178226
:100A80001682838181FD03C06FEF7FEFB9C19AE0C9
:100A9000892E1E010894211C311CF3012381F201CF
:100AA00023FD859123FF81912F01882309F4A5C19E
:100AB000853239F423FD859123FF81912F01853201
:100AC00021F490E0B301CFD1E8CF982FFF24EE249A
:100AD0009924FFE1FF15D0F09B3269F09C3228F495
:100AE000903259F0933291F40EC09D3249F0903318
:100AF00069F441E024C052E0F52A84E0F82A28C0D5
:100B000098E0F92A25C0E0E1FE2A22C0F7FC29C0BE
:100B1000892F80538A3070F4F6FE05C0989C902C83
:100B20001124980E15C0E89CE02C1124E80EF0E288
:100B3000FF2A0EC09E3229F4F6FC5FC140E4F42A7D
:100B400007C09C3619F450E8F52A02C0983649F4DB
:100B5000F20123FD959123FF91912F01992309F033
:100B6000B8CF892F8554833018F08052833038F401
:100B700044E050E0A40EB51E5FE359830FC09336E6
:100B800031F0933779F0933509F052C01FC0F50169
:100B90008081898342E050E0A40EB51E610101E02E
:100BA00010E011C0F501C080D180F6FC03C06FEFEA
:100BB0007FEF02C0692D70E042E050E0A40EB51E48
:100BC000C60146D18C015FE7F52213C0F501C08054
:100BD000D180F6FC03C06FEF7FEF02C0692D70E09B
:100BE00042E050E0A40EB51EC60127D18C0150E8AA
:100BF000F52AF3FE06C018C080E290E0B30133D1BD
:100C0000EA948E2D90E008171907B0F30DC0F60195
:100C1000F7FC8591F7FE81916F0190E0B30123D13C
:100C2000E110EA94015010400115110581F7E2C06E
:100C3000943611F0993661F5F7FE08C0F501208170
:100C400031814281538184E090E00AC0F5018081C6
:100C500091819C01442737FD4095542F82E090E01C
:100C6000A80EB91E9FE6F92257FF09C0509540957E
:100C7000309521953F4F4F4F5F4FE0E8FE2ACA0164
:100C8000B901A1012AE030E01AD1D82ED2183FC014
:100C9000953729F41F2D1F7E2AE030E01DC01F2D3F
:100CA000197F9F3661F0903720F4983509F0A5C080
:100CB0000FC0903739F0983709F09FC004C028E082
:100CC00030E00AC0106114FD146020E130E004C07F
:100CD00014FD166020E132E017FF08C0F5016081C5
:100CE00071818281938144E050E008C0F5018081E8
:100CF0009181BC0180E090E042E050E0A40EB51E7E
:100D0000A101DDD0D82ED2188FE7F82EF122F6FE01
:100D10000BC05EEFF522D91438F4F4FE07C0F2FCE4
:100D200005C08FEEF82202C01D2D01C0192DF4FE62
:100D30000DC0FE01ED0DF11D8081803319F499EE97
:100D4000F92208C01F5FF2FE05C003C08F2D867810
:100D500009F01F5F0F2DF3FC13C0F0FE0EC01E152F
:100D600010F09D2C0AC09D2C9E0C911A1E2D05C0C2
:100D700080E290E0B30177D01F5F1E15C8F304C076
:100D80001E1510F4E11A01C0EE2404FF0EC080E32A
:100D900090E0B30168D002FF1BC001FD03C088E7EB
:100DA00090E00EC088E590E00BC0802F867881F03F
:100DB00001FF02C08BE201C080E2F7FC8DE290E00F
:100DC000B30151D005C080E390E0B3014CD09A94B8
:100DD000D914C8F3DA94F101ED0DF11D808190E092
:100DE000B30141D0DD20B1F705C080E290E0B3014E
:100DF0003AD0EA94EE20C9F750CEF30166817781AC
:100E0000CB012B960FB6F894DEBF0FBECDBFCF91AE
:100E1000DF911F910F91FF90EF90DF90CF90BF90E7
:100E2000AF909F908F907F906F905F904F903F908A
:100E30002F900895A2D0272FA1C0FC0105906150EA
:100E400070400110D8F7809590958E0F9F1F0895E0
:100E5000FC016150704001900110D8F78095909589
:100E60008E0F9F1F08950F931F93CF93DF938C01D5
:100E7000EB018B8181FF1BC082FF0DC02E813F8162
:100E80008C819D812817390764F4E881F9810193E9
:100E9000F983E88306C0E885F985802F1995892BA9
:100EA00031F48E819F8101969F838E8302C00FEF64
:100EB0001FEFC801DF91CF911F910F910895FA01A3
:100EC000AA27283051F1203181F1E8946F936E7F89
:100ED0006E5F7F4F8F4F9F4FAF4FB1E03ED0B4E07A
:100EE0003CD0670F781F891F9A1FA11D680F791FBB
:100EF0008A1F911DA11D6A0F711D811D911DA11DCC
:100F000020D009F468943F912AE0269F11243019DB
:100F1000305D3193DEF6CF010895462F4770405D76
:100F20004193B3E00FD0C9F7F6CF462F4F70405D25
:100F30004A3318F0495D31FD4052419302D0A9F780
:100F4000EACFB4E0A6959795879577956795BA957A
:100F5000C9F700976105710508959B01AC010A2E40
:100F600006945795479537952795BA95C9F7620F17
:100F7000731F841F951FA01D0895262FF999FECF7A
:100F80001FBA92BD81BD20BD0FB6F894FA9AF99AA6
:0A0F90000FBE01960895F894FFCFFC
:100F9A0025730D0A00204552524F5220656E205388
:100FAA006572766F20496E666572696F7220497A3A
:100FBA0071756965726461002A2A2A2A2A2A2A2AEC
:100FCA002A2A2A2A2A2A2A2A2A2A2A2A2A2A2A2A77
:100FDA002A2A2A2A2A2A2A2A2A2A2A2A2A2A2A2A67
:100FEA002A2A2A2A2A2A2A2A2A2A2A2A2A2A2A2A57
:100FFA002A2A2A2A2A2A2A2A2A2A2A2A2A2A00207B
:10100A004552524F5220656E20536572766F2049C1
:10101A006E666572696F7220446572656368610005
:10102A00204552524F5220656E20536572766F20CA
:10103A005375706572696F72204465726563686181
:10104A0000204552524F5220656E20536572766FCA
:10105A00205375706572696F7220497A7175696576
:10106A0072646100256425730D0A0020206D656491
:10107A006961497A717569657264610020206D65DC
:10108A006469614465726563686100202053657212
:10109A00766F002020536572766F494E4645524955
:1010AA004F5200456C2073697374656D61206573D6
:1010BA0074612070726570617261646F2070617210
:1010CA00612066756E63696F6E61720A0D002A721D
:1010DA00696E672A0A000000000300000000C003CE
:0410EA00DF03000020
:00000001FF
